:1000000000100020910000008D0000008D00000015
:1000100000000000000000000000000000000000E0
:100020000000000000000000000000008D00000043
:1000300000000000000000008D0000008D000000A6
:100040008D0000008D0000008D000000610E00009A
:100050008D0000008D0000008D0000008D0000006C
:100060008D0000008D000000B10200008D00000036
:100070008D000000E90100009D1600008D000000C9
:100080008D0000008D0000008D000000FEE7FFFFE6
:10009000002370B509480A490A4C1A188A4207D346
:1000A0000021094B094A934206D300F0E3F9FEE729
:1000B000E55804331560F0E702C3F4E700000020C0
:1000C000580200207C300000580200201C04002050
:1000D0000122034B197E1142FCD080B21885704773
:1000E000000C004210B504002078002800D110BD9B
:1000F0000134FFF7EDFFF7E70222034B1A700022ED
:10010000FF335A777047C046D002002070B585682B
:10011000020069680020872919D96968E42916D87E
:1001200023490C00FF34647F042C11D1AC681F2CD0
:100130000ED9AC68362C0BD8EC68082C08D9EC68C2
:10014000112C05D8012350605B420120136070BD63
:10015000FF31497F00204329F9D9A9684129F6D9FF
:10016000A9686F29F3D82C00030001260D350C3443
:10017000FF352168082919D92168112916D8606826
:10018000211D15280AD96068262807D85B0033434B
:100190000834AC42EDD120215160D6E7086805282B
:1001A00004D909680C2901D85B00F1E70020CEE7EB
:1001B000D00200200A4B10B583600A4B1A00FF32B0
:1001C000527FC2601A780023052A07D1FFF79EFFED
:1001D0000123041E02D1FFF78FFF2300180010BD7A
:1001E000D4020020D0020020F0B52C4DAB7BDB0602
:1001F00020D52B4B2B4C1A6A04231A402368591C18
:10020000294B21601800FF30407F452801D9052087
:1002100018701878023803280AD801F097FA021BE0
:100220002B3B002A04D12148814204D800232360BB
:100230001023AB73F0BD1E00FF367277707FC0B223
:10024000471CFFB2777780001818416022600322B4
:100250001A70EDE7002AEBD01E00FF36727FD2B293
:10026000501C92009A18C0B2707751600022226030
:100270000432EDE7002A07D11F00FF37787FC0B2B4
:10028000461CF6B27E77DEE7FA22D2009142CFD941
:100290000522DDE7002AC9D0CAE7C046001800429F
:1002A00000440041F4030020D0020020CF070000EA
:1002B000054B1A7E520706D51B8D044ADBB213701C
:1002C0000122034B1A707047000C0042F00300201B
:1002D0006002002010B50248FFF704FF10BDC046C1
:1002E000AC2C00000023F7B501AF04007B70387020
:1002F0002A2808D1134A1360124D2B68502B16DDA3
:1003000000232B6010E0232807D10F4B1B782A2BEA
:1003100003D101220D4B1A70EEE7200001F004FA20
:100320000028E9D101F08CF920242000FEBD01F065
:10033000ADF92E68044839003018013601F0D8FEB6
:100340002E60F2E75C0200206C02002061020020B7
:1003500070B580268025084C3602ED016661656126
:10036000002807D0A6619620400001F0D1F966610F
:10037000656170BDA561F6E700440041F0B597B036
:1003800005AD07AC0700280000F074FD200000F068
:10039000ABFD2900200000F0DFFD0600002F36D065
:1003A0001C4909A801F0A4FE09A8FFF79BFE04213F
:1003B000012300226956EB56AA5602910321695681
:1003C00009A80191022169560091134901F064FEC8
:1003D00009A8FFF787FE0421012300226156E35696
:1003E000A25602910321615609A80191022161568A
:1003F00000910A4901F050FE09A8FFF773FE320090
:10040000074909A801F048FE09A8FFF76BFE300074
:1004100017B0F0BDB42C0000CD2C0000EE2C000075
:100420000F2D000073B50E0004006846150000F0A3
:100430005BFD3100684600F08FFD2A003100002886
:1004400000DB6946200000F00FFE73BD00B5074BCE
:100450008FB01A6806495203520B01A801F01CFE26
:1004600001A8FFF73FFE0FB000BDC0460CA0800002
:10047000A12C0000F0B5CD4ACD49136AB1B00B40B4
:10048000136262B64023CB4F02243A6A012613431B
:100490003B62C94AC94BCA4D5380CA4BCA4A1A80EB
:1004A00000221A8230221A8300221A821A882243DA
:1004B0001A8010225A738023C44A9B01136001F0F2
:1004C0001FF900F071FF8023DB05AB60C04BC14911
:1004D0001A7822431A701A7832431A700F220B7856
:1004E000934323430B708023BB4A1B066B609C46DF
:1004F00013782343137004231078984310706046D8
:10050000A8611078184310701078304310700F22D3
:10051000087810401132104308700821386A0143EE
:100520003962A548AD49AE4F4180AE49AE4808603A
:10053000C02080024860AD4888818B7508682043E0
:1005400008608021A148C900016080200002A860E5
:1005500039782143397068618020A54FC001A860B7
:1005600039782143397010216861A248A960017867
:1005700021430170102169619F496B600878204315
:100580000870087898430870AB61087803430B70D3
:100590009A4BAA60197817A80C431C7098490A2333
:1005A000AA61320001F078FD17A8FFF79BFDFFF765
:1005B0004DFF944917A801F09BFD17A8FFF792FD86
:1005C000914917A801F094FD0FAC17A8FFF78AFD19
:1005D00000F096FB200000F037FC27780695002FEE
:1005E00014D13800FFF7B4FE8848FFF77BFD3A00CE
:1005F0003900380000F0C0FD32003100300000F05A
:10060000FBFDA77000F0F6FF34002DE08048FFF7F7
:1006100069FDE179A079002200F0AEFDE278217950
:10062000607900F0E9FD217BE07A002200F024FEF1
:10063000227A617AA07A00F05FFEA3786278754929
:1006400017A801F029FD17A8FFF74CFD3000FFF7B0
:1006500095FE6478002C56D16F48FFF743FD00F0FB
:10066000A3FF3000FFF774FEFFF734FEFFF744FDF1
:100670000023049307930393039B642001339BB2ED
:10068000039301F045F8012C59D0002C53D0022CD3
:1006900059D072B6614B1A78002A58D000221A70CD
:1006A0005F4B1878C0B2FFF71DFE62B6FFF710FD72
:1006B0005C4B1B78052B00D09BE113A8FFF77AFD5C
:1006C000002800D190E1139B574A934248D000D9AB
:1006D00004E1564A934200D166E100D9C4E0544A8D
:1006E000934200D128E140D8524A934200D1E2E03F
:1006F0002FD8514A934200D1D1E1504A934200D1C0
:10070000D7E13F2562E1002808DA4D48FFF7EAFC0F
:1007100000F070FF0020FFF71BFE75E74948FFF768
:10072000E1FC062000F0F4FD00F03EFF3000FFF792
:100730000FFE002498E72022069B9A61A9E7202259
:10074000069B5A61A5E72022069BDA61A1E762B603
:10075000AEE73D4A934200D137E13C4A9342D0D1C3
:100760002A20FFF7BFFD2A2530E1394A934200D104
:1007700029E10BD8374A934200D19FE1364A934290
:10078000BFD13620FFF7AEFD36251FE1334A934235
:1007900000D189E1324A934200D194E1314A934237
:1007A000AFD12320FFF79EFD23250FE10008004075
:1007B000FFFCFFFF00040040000C0040124000005E
:1007C00000440041001800422023000000E100E046
:1007D0005E4400413F4400415F4400410F4000003F
:1007E0004F440041000C00420400104016FBFFFF84
:1007F0004E440041444400414244004145440041CC
:10080000B42A0000DB2A0000262B0000492B000040
:10081000632B00007A2B00008F2B00006002002069
:10082000F0030020D00200209768FF006F90FD00C9
:10083000BF40FD00DF20FD00FF00FD00EF10FD00C8
:10084000AF2B0000CC2B0000D728FD00CF30FD00DF
:100850009768FD00AF50FD009F60FD007F80FD00A8
:100860007788FD008F70FD00A54A934200D1ACE06F
:1008700015D8A44A934200D187E00BD8A24A9342EC
:100880002AD0A24A934200D03BE73520FFF72AFD49
:1008900035259BE09E4A934237D09E4AF2E79E4A16
:1008A000934272D00CD89D4A934200D10BE19C4AEE
:1008B000934200D025E73420FFF714FD342585E06E
:1008C000984A934200D17EE0974A934200D1EBE0F0
:1008D000964A934200D014E7762577E0944A9342F3
:1008E00000D1E6E036D8934A934200D149E716D8C2
:1008F000914A934200D1D2E00CD8904A934200D161
:10090000DCE08F4A934200D0FBE63020FFF7EAFCA0
:1009100030255BE08B4A934246D08B4A3FE78B4AB7
:10092000934200D11CE70CD8894A934200D1C0E021
:10093000884A934200D0E4E63320FFF7D3FC332506
:1009400044E0854A934240D0844A934200D128E74C
:10095000834AADE7834A934200D1B4E017D8824A74
:10096000934200D10DE705D8804A934200D196E02A
:100970007F4AAEE77F4A9342C7D07F4A934200D175
:1009800083E77E4A934200D0BBE621251EE07C4AE5
:10099000934200D188E00CD87A4A934200D18DE08E
:1009A000794A934200D0ACE63820FFF79BFC38250B
:1009B0000CE0764A9342BFD072255A1C06D0744A86
:1009C000934200D09DE63E2500E03C252800FFF73D
:1009D0007FFB2B00139A6F4917A801F05DFB17A846
:1009E000FFF780FBFFF776FC0A2000F091FEFFF78F
:1009F00083FB694B1B78002B18D06848FFF772FB0C
:100A0000674D2800FFF76EFB6649280001F066FB82
:100A100000285AD1FFF71AFD64220021604801F036
:100A200032FB00225C4B1A70FFF754FC5E4B1A78C5
:100A3000002A0AD000245D481C70FFF753FB00F029
:100A4000D9FD2000FFF784FC01340A21039800F04F
:100A50000DFF89B2049E00291FD100F037FA05006E
:100A600000F026FA049B0600834205D00120FFF720
:100A700085FC002800D102246B070ED1079BAB42F6
:100A80000BD0272006ABC01800F0F4F94848FFF758
:100A900029FB0FA800F088F907950496ECE53120B2
:100AA000FFF720FC312591E73220FFF71BFC3225B0
:100AB0008CE73720FFF716FC372587E73920FFF74B
:100AC00011FC392582E75E2580E73A49280001F0CC
:100AD00005FB00280AD10130FFF750FC002802DC9A
:100AE00000F088FD98E700F04BFD95E732492800BB
:100AF00001F0F4FA002861D10130FFF73FFC8BE7E9
:100B0000EF10FF0057A8FD006798FD005FA0FD00F3
:100B10004FB0FD00FD02FF00C738FF00E718FF00DF
:100B2000DD22FF00A55AFF009D62FF00B54AFF00CD
:100B3000BF40F7083DC2FF005DA2FF006F90FF00BD
:100B40006798FF0057A8FF004FB0FF00FF00F708AD
:100B50001FE0FF001DE2FF00EF10F708D728F7089D
:100B6000FD02F7086F90F7089768F708BD42F7088D
:100B7000AF50F7087F80F7087D82F7088F70F7087D
:100B80003DC2F70857A8F7083FC0F70817E8F7086D
:100B90002FD0F708E52B000061020020F32B0000A6
:100BA0006C020020012C0000580200207D2C000067
:100BB000912C0000052C0000092C0000280001F0F9
:100BC0009FFA0C2800D086E0202300210A2228006A
:100BD0002B70E97201F022FB0221C04300F0B2FD4C
:100BE0007F2303400593450BC3049B0E059A3B49A5
:100BF000009517A8029301F04FFA17A8FFF772FAB1
:100C0000374B38481B685B035B0B9D4261D136480C
:100C1000FFF768FA0FAB9B78002B02D0059A9A4237
:100C200056D9029B002B4DD03048FFF75BFA6B463C
:100C300000271B7A09AD0DAC0BAE2800B3703770DE
:100C40007770F770377100F015F932002900200035
:100C5000FFF7E8FB2179E0783A0000F00DFB2278FD
:100C60006178A07800F048FB062000F051FBE278A4
:100C70000FABDA7222791A73A2789A7262785A727A
:100C800022781A72EA789A712A79DA71AA785A71F6
:100C90006A781A712A78DA706B461B7D0FACA370E4
:100CA0006B4601251B7A124863702570FFF71AFA0C
:100CB000200000F079F800F077FC2800FFF748FBEF
:100CC0000024A9E60B48FFF70DFA00F031FBE3E73B
:100CD0000948FFF707FA00F0B3FC9DE60D2C000071
:100CE0000CA080006E2C0000262C0000312C00008F
:100CF000512C0000412C00005F2C00007047FFFFCA
:100D00000C490D4A8B685B035B0F9B009A580B4B99
:100D10001A608B680A499BB20B60534309499200E1
:100D20000B60094B1A60094A094B1A600D22094BE6
:100D30001A60704700400041002F000004040020AA
:100D4000FC030020F803002008040020002E00000F
:100D5000000400200C040020044B054A4008D86120
:100D60001A801A7DD207FCD57047C046004000416A
:100D700002A5FFFF094B70B51D68094B1C68094EA1
:100D8000200033689D4202D8FFF7E6FF70BDFFF7F1
:100D9000E3FF3368E418ED1AF1E7C0460C040020C5
:100DA0000004002008040020F8B51F4B05001E6851
:100DB0001E4B1F68FFF7DEFF80211D4AFB1C506899
:100DC0009B0801435160002B00D1F8BD19491180E7
:100DD000117DC907FCD518481900844667463F684D
:100DE000581ABF08B84201D2002906D1134B13800C
:100DF000137DDB07FCD50B00E5E7FF272878BC4314
:100E000004430F4F68783C40000204430D48AF781C
:100E10002040EC783F0480B224063843044310C6D7
:100E200004350139DAE7C046000400200C04002034
:100E30000040004144A5FFFF0404002004A5FFFF7B
:100E4000FF00FFFFFFFF00FF034B10B51968034BC6
:100E50001A6801F00FF910BD000400200C040020F6
:100E60000123024A1370024A13727047580200208D
:100E7000001400400C4B0D4A5A809A7AD209FCD1DA
:100E80001A69920E02701A699201120F42701A6961
:100E90009202D20E82701A69D203D20EC2701B69FE
:100EA0001B059B0E03717047001400400080FFFF7C
:100EB000044B054A5A809A7AD209FCD11869000578
:100EC000800E7047001400400080FFFF044B054A6D
:100ED0005A809A7AD209FCD11869C003C00E7047B3
:100EE000001400400080FFFF0A4B9A69920E0270C6
:100EF0009A699201120F42709A699202D20E827020
:100F00009A69D203D20EC2709B691B059B0E0371B6
:100F10007047C04600140040012201780300825649
:100F20001D20890700D01C20022A0AD05B781E20D1
:100F30000C2B06D81D389840024B1840431E984190
:100F40001E307047AA150000032300781840434262
:100F500058416E30FF307047F0B5002387B06A46C5
:100F6000C356B4250193127904AB1A70012306000D
:100F7000002702240091C356ED000293029B9C427D
:100F800041DD022030566A4645430320EF193C25D7
:100F900030563679454376B2EF19B425F719022455
:100FA0000026009BED001B785BB20293127A04AB23
:100FB0001A70009B5B785BB20393039B9C422EDD0F
:100FC0000220009B0024185645430320AE193C25FF
:100FD000185645430420AE19022518568619BE1B23
:100FE000019B9D4227DD00270225029B9D422DDDAE
:100FF000B421E41BC9004C43A01932D400F03AFCE0
:1010000040B207B0F0BD04AAE4B2631E10005370F2
:10101000FFF782FF684301343F1864B2AEE704AAC9
:10102000E4B2631E10005370FFF776FF684301348B
:10103000361864B2C1E704AAEDB26B1E100013703B
:10104000FFF782FF013524186DB2C9E704AAEDB29B
:101050006B1E10001370FFF777FF01353F186DB25C
:10106000C3E701204042CBE7F8B500231600040097
:101070000F000371C370837012780B789B18037094
:101080004B7872789B1863700123E3560C2B1FDC9E
:101090003B7932799B18237104216156E2783B2910
:1010A0001BDCFB78F1785B189B18E3700322A256D7
:1010B000A578172A16DC2000FFF72EFFBB78B27840
:1010C0009B185B19A3700223E35698420FDBF8BD0F
:1010D00022780C3B01322270D5E701323C39E270B4
:1010E0002171D9E70135183AA570E270DEE71B1AC5
:1010F000A37063785A1C52B262700C2A04DD227805
:101100000B3B0132227063702000FFF705FFDAE726
:1011100010B53F24054B01001A692140A24310007D
:10112000084318619A7AD209FCD110BD001400401E
:101130003F21064B01401A690548890110400843C8
:1011400018619A7AD209FCD17047C0460014004059
:101150003FF0FFFF1F21064B01401A6905480903B4
:101160001040084318619A7AD209FCD17047C046F2
:1011700000140040FF0FFEFF70B50D0004001000CA
:10118000FFF7C6FF2800FFF7D3FF2000FFF7E2FFBD
:1011900070BDFFFF1F21064B01401A690548490435
:1011A0001040084318619A7AD209FCD17047C046B2
:1011B00000140040FFFFC1FF0F21064B01401A69D8
:1011C000054889051040084318619A7AD209FCD174
:1011D0007047C04600140040FFFF3FFC054A8106EF
:1011E00013699801800908431061937ADB09FCD1E7
:1011F0007047C0460014004070B50D001400FFF7A2
:10120000C9FF2800FFF7D8FF2000FFF7E7FF70BDF8
:1012100010B53F24054B01009A692140A2431000FC
:10122000084398619A7AD209FCD110BD001400409D
:101230003F21064B01409A69054889011040084347
:1012400098619A7AD209FCD17047C04600140040D8
:101250003FF0FFFF1F21064B01409A690548090333
:101260001040084398619A7AD209FCD17047C04671
:1012700000140040FF0FFEFF70B50D0004001000C9
:10128000FFF7C6FF2800FFF7D3FF2000FFF7E2FFBC
:1012900070BDFFFF1F21064B01409A6905484904B4
:1012A0001040084398619A7AD209FCD17047C04631
:1012B00000140040FFFFC1FF0F21064B01409A6957
:1012C000054889051040084398619A7AD209FCD1F3
:1012D0007047C04600140040FFFF3FFC054A8106EE
:1012E00093699801800908439061937ADB09FCD1E6
:1012F0007047C0460014004070B50D001400FFF7A1
:10130000C9FF2800FFF7D8FF2000FFF7E7FF70BDF7
:1013100010B50724054B01001A7F2140A24310009D
:10132000084318779A7AD209FCD110BD0014004006
:101330000721044B1A7F8A431A779A7AD209FCD183
:101340007047C046001400400221044B1A888A43AB
:101350001A809A7AD209FCD17047C0460014004026
:101360000222044B19880A431A809A7AD209FCD1C6
:101370007047C046001400400122044B19880A43FC
:101380001A809A7AD209FCD17047C04600140040F6
:101390000121044B1A888A431A809A7AD209FCD117
:1013A0007047C04600140040202310B51C4A9169C4
:1013B0000B4393611B4A1C4B9A821C4B1C4A9A603C
:1013C0005A7852B2002AFBDB1A4A5A605A7852B253
:1013D000002AFBDB184A5A805A78D209FCD1FFF761
:1013E000B3FFFFF7C9FF154B15495A880A405A80C9
:1013F000144A1A809A7AD209FCD10821124A116043
:101400000122D9790A430721DA711A7F8A431A77B0
:101410009A7AD209FCD1FFF7A3FFFFF7B9FF10BDFD
:1014200000040040CE06000000080040000C004010
:1014300002040000020511000442000000140040F4
:10144000FFBFFFFF080A000000E100E00221084B97
:101450001A888A431A80DA7BD209FCD101321A80B9
:10146000DA7BD209FCD11A88D207FCD47047C04677
:10147000001C004210B5FFF7E9FF1022024B5A6131
:101480000022024B1A7010BD00440041620200208D
:10149000F7B580220F002F49D201CA67C0212E4B19
:1014A00049005A502D4A060012780193002A01D0B3
:1014B000FFF7E0FF31002A4800F052F9294A0023E3
:1014C00094460425441E644531D8013B0025092B70
:1014D00002D8254A5B009D5A002F38D0FA217800A7
:1014E0007043890000F03CF9020000231F490A60A4
:1014F0004B60FFF7ABFF20221D4B19880A431543B1
:101500001D80DA7BD209FCD1A4B21C83DA7BD2091C
:10151000FCD110325A7319880E3A0A431A80DA7BCA
:10152000D209FCD18023019ADB011360F7BD0400CE
:1015300019005A1CD440A943C9B2013C032902D066
:10154000D2B2062A01D10233DAB21300BBE701207E
:101550004042C9E704E100E000E100E0620200204F
:1015600000093D00FFFF0000202F000010040020B4
:10157000001C004210B5312801D9FFF789FF10BDCA
:1015800070B5DC26050000247600AC4200DB70BD9F
:10159000FA213000FFF77CFF4620FF3000F0B8F85A
:1015A0000134FFF767FFF0E7F8B5FA270024BF0022
:1015B0000D4E38003319596800F05CF90500010040
:1015C000A059FFF7D7FF280000F0F4FC074A084BAA
:1015D00000F03CFA00F0BAFC083400F099F8FFF78C
:1015E00049FF382CE4D1F8BD50000020CDCCCCCC44
:1015F000CCCCF43FF8B5FA270024BF000D4E3800DC
:101600003319596800F036F905000100A059FFF7B9
:10161000B1FF280000F0CEFC074A084B00F016FA94
:1016200000F094FC083400F073F8FFF723FF402C1F
:10163000E4D1F8BD10000020CDCCCCCCCCCCF43F14
:10164000F8B5FA270024BF000D4E38003319596849
:1016500000F010F905000100A059FFF78BFF2800EA
:1016600000F0A8FC074A084B00F0F0F900F06EFC0F
:10167000083400F04DF8FFF7FDFE102CE4D1F8BD62
:1016800000000020CDCCCCCCCCCCF43F10B5FA215E
:101690000148FFF7FDFE10BD17040000F7B5102745
:1016A000134DAB7B01953B421BD0124D124C2A6867
:1016B0006B6816001E4315D02A686B68002B02DC8D
:1016C0000AD1002A08D02A686B6801204042C1175D
:1016D00012184B412A606B601023E3611023019ABA
:1016E0009373F7BDFFF7B2FE044B67611E70F5E719
:1016F000001C00421004002000440041620200204F
:101700008023024A116A0B431362704700040040B1
:10171000044B58430023834200D17047C046013335
:10172000F9E7C04652030000010003003F220020F9
:101730009143814205D10922303BDBB29A424041BC
:10174000C0B270472023591AC841704702B471468D
:1017500049084900095C49008E4402BC7047C046F4
:10176000002243088B4274D303098B425FD3030AE0
:101770008B4244D3030B8B4228D3030C8B420DD3F3
:10178000FF22090212BA030C8B4202D31212090281
:1017900065D0030B8B4219D300E0090AC30B8B42BF
:1017A00001D3CB03C01A5241830B8B4201D38B036D
:1017B000C01A5241430B8B4201D34B03C01A524112
:1017C000030B8B4201D30B03C01A5241C30A8B4255
:1017D00001D3CB02C01A5241830A8B4201D38B0240
:1017E000C01A5241430A8B4201D34B02C01A5241E4
:1017F000030A8B4201D30B02C01A5241CDD2C30956
:101800008B4201D3CB01C01A524183098B4201D3D1
:101810008B01C01A524143098B4201D34B01C01ABC
:10182000524103098B4201D30B01C01A5241C30834
:101830008B4201D3CB00C01A524183088B4201D3A3
:101840008B00C01A524143088B4201D34B00C01A8F
:101850005241411A00D20146524110467047FFE7FB
:1018600001B5002000F0F0F802BDC0460029F7D015
:1018700076E7704703460B437FD4002243088B4230
:1018800074D303098B425FD3030A8B4244D3030B07
:101890008B4228D3030C8B420DD3FF22090212BACC
:1018A000030C8B4202D31212090265D0030B8B4248
:1018B00019D300E0090AC30B8B4201D3CB03C01A32
:1018C0005241830B8B4201D38B03C01A5241430B0D
:1018D0008B4201D34B03C01A5241030B8B4201D3FD
:1018E0000B03C01A5241C30A8B4201D3CB02C01A68
:1018F0005241830A8B4201D38B02C01A5241430AE0
:101900008B4201D34B02C01A5241030A8B4201D3CE
:101910000B02C01A5241CDD2C3098B4201D3CB0175
:10192000C01A524183098B4201D38B01C01A524124
:1019300043098B4201D34B01C01A524103098B4228
:1019400001D30B01C01A5241C3088B4201D3CB0013
:10195000C01A524183088B4201D38B00C01A5241F6
:1019600043088B4201D34B00C01A5241411A00D2A6
:1019700001465241104670475DE0CA0F00D049420F
:10198000031000D34042534000229C4603098B427F
:101990002DD3030A8B4212D3FC22890112BA030A07
:1019A0008B420CD3890192118B4208D38901921189
:1019B0008B4204D389013AD0921100E08909C3090E
:1019C0008B4201D3CB01C01A524183098B4201D310
:1019D0008B01C01A524143098B4201D34B01C01AFB
:1019E000524103098B4201D30B01C01A5241C30873
:1019F0008B4201D3CB00C01A524183088B4201D3E2
:101A00008B00C01A5241D9D243088B4201D34B00FC
:101A1000C01A5241411A00D20146634652415B103E
:101A2000104601D34042002B00D54942704763461F
:101A30005B1000D3404201B5002000F005F802BD64
:101A40000029F8D016E770477047C046F0B55746F2
:101A50004546DE464E46E0B50C0398464E00230B45
:101A600087B0070092469B46760DCD0F002E6BD0B7
:101A70006D4B9E4235D080245B46420F2404DB0030
:101A800014431C43C3009946684BA3469C4600235D
:101A900000276644029343461C035A00DB0F50465E
:101AA000240B520D984600D176E05F4B9A426DD0E0
:101AB0008023410F1B040B435C49E4008C461C430C
:101AC000C300002062444146B6186940721C01916F
:101AD000944607430F2F00D9B0E0554ABF00D259B2
:101AE00097465B460343994600D087E000239B4618
:101AF000023308270293CEE742460192022867D0BC
:101B0000032800D10EE2012800D062E10023002466
:101B10000022994601990140CDB2002112030B0D1C
:101B2000120B1B051343434A240513401C43640056
:101B3000ED0764082C434846210007B03CBC9046A2
:101B40009946A246AB46F0BD034399464FD05B464B
:101B5000002B00D189E1584600F06EFA03000B3BE0
:101B60001C2B00DD7AE11D22D31A3A0001005C46ED
:101B7000DA4008398C4013008F4023439B46B94616
:101B800000232D4E0027361A029384E75346234341
:101B90002AD10024022096E75346234320D0002C6C
:101BA00000D157E1200000F047FA03000B3B1C2B4B
:101BB00000DD49E11D21CB1A51460200D9405346B0
:101BC000083A944093400C431B4A121A00207AE7CB
:101BD0000125019B144C1D400023002299469CE7DF
:101BE0000024002201206EE7534603206BE7002308
:101BF0009B4601330427002602934CE703238146CA
:101C00000C27029347E78022002300251203994600
:101C1000054C82E75C464B4602986FE75C464B46B4
:101C2000019502986AE7C046FF07000001FCFFFF2C
:101C3000742A0000FFFF0F800DFCFFFF4A46494653
:101C4000170C1A0C1B041B0C08041900000C414350
:101C50001500884619007D4379430395894629007C
:101C6000150045434D44029545462D0CAA46029D5C
:101C70005544A94506D98A46802149028946CA4465
:101C800051460391290C0491414609042D04090C85
:101C900088462900250C24044144240C0591210088
:101CA00041438846210079438A466843414650446F
:101CB0008146080C48446F43824503D9802149027C
:101CC00089464F44010C89463900494402914146F6
:101CD0000F0404993F0C88460004C0198044414613
:101CE000049159460F0C0904090C884659438A4649
:101CF00039005143894641464A435146090C8B46B7
:101D00007B43D2185A44934203D980235B029B46FB
:101D1000D94451460904090C8A46414661437C4333
:101D2000130C12044B445244A1468A463C004146DF
:101D30006C434D4351464D440F0C7D19A94503D9C1
:101D40008021490288464444049F0399B84641448F
:101D50008B468345804141428846514608042F0402
:101D6000000C3F185846029910188946904292413B
:101D70004F44BA46524299469346C244D144CB445A
:101D80008F42BF41C245894199459B41934592414C
:101D90007F4249422D0C52420F435B4213437F194D
:101DA000FF185B463C19DB0D059A64021C43430295
:101DB00013435D1EAB415A46C00D03435202134309
:101DC000E20156D501205A0803401343E2071343AA
:101DD00064085A48604400284DDD5A0709D00F2294
:101DE0001A40042A05D01A1D9A429B415B42E4180E
:101DF0001300E20104D58020514AC0001440604421
:101E0000504A904200DDE3E60125DB0862071A43F1
:101E10006402019B9146220B4405640D1D407CE643
:101E2000802259461203114208D0144206D122439F
:101E30001203120B45469946434C6EE65B461A4325
:101E40001203120B404C68E603005446283B9C40AA
:101E50000023B9E600F0F0F82030A6E60300283BA6
:101E60009F400023BB4699468AE600F0E5F8203003
:101E700074E6B446ADE701252A1A382A06DD019B2F
:101E800000241D4000230022994646E61F2A21DC3B
:101E900020252000AD1A1E00AB40A840D6405D1E94
:101EA000AB4130431843D440430709D00F230340CC
:101EB000042B05D00300181D98429B415B42E41897
:101EC000230221D50125019B01241D40002300226E
:101ED000994622E61F2521006D42281AC1400800BC
:101EE000202A1DD05F35AA1A944023435C1EA341CB
:101EF000072503431D400022002D09D00F22002496
:101F00001A401800042AD6D1030065076402220B88
:101F1000DB082B4301259946019B00241D40FCE56D
:101F20000024E2E7802201251203224301991203D3
:101F3000120B0D409946044CEFE5C046FF0300002C
:101F4000FFFFFFFEFE070000FF07000030B5134D46
:101F50000A034B00120B5B0DC90F0024AB4210DDCE
:101F60000F4CA3420FDC80240E4D64032243ED1A74
:101F70001F2D0BDD0C48C31ADA405442002900D152
:101F80001400200030BD094BCC18FAE7084CE8409B
:101F9000A44663449A400243EFE7C046FE030000B4
:101FA0001D0400003304000013040000FFFFFF7F46
:101FB000EDFBFFFF70B5002830D0C317C4185C409C
:101FC000C50F200000F038F8174B184A1B1AD21A18
:101FD0001F2A18DD164AD21A9440002224035B05FA
:101FE000240B5B0D0021100024030A0D240B1205A5
:101FF0002243104C1B05224013435B00ED075B0896
:102000002B43190070BD210091400A000B21081AD2
:10201000C4405B052403240B5B0DE3E7002500238C
:1020200000240022DEE7C0461E0400003304000046
:1020300013040000FFFF0F801C2101231B049842A2
:1020400001D3000C10391B0A984201D3000A083949
:102050001B09984201D30009043902A2105C401800
:102060007047C046040302020101010100000000A4
:1020700000000000002310B59A4200D110BDCC5CD6
:10208000C4540133F8E703008218934200D170472B
:1020900019700133F9E7FFFF0EB410B59DB002A926
:1020A000029008610B488224886048610120404208
:1020B0001FABC881084804CBA400006801938C8141
:1020C00000F038F90023029A13701DB010BC08BC50
:1020D00003B01847FFFFFF7F8800002002780B78CD
:1020E000002A03D0013001319A42F7D0D01A70474C
:1020F000031C0A7801311A700133002AF9D17047A4
:102100000023C25C0133002AFBD1581E7047F0B592
:102110001F000E0087B00590039101920C9834784F
:1021200000F090F8082200194378751C13400CD178
:102130002D2C0CD101332C780293B51C002F0CD020
:10214000102F14D1302C0AD011E02E00E6E70293B4
:102150002B2CF3D12C78B51CF0E7302C2FD120227A
:102160002B789343582B54D110276C7802350120DB
:1021700039004042FFF7F4FA0600012039004042DE
:10218000FFF774FB002304910121012218008C4603
:10219000524221003039092913D80C00A7421EDD14
:1021A000002B1ADB1300864206D302D10499A14208
:1021B00002DB6346784320182C780135E9E70A27CB
:1021C000D5E721004139192901D8373CE6E721003C
:1021D0006139192903D8573CE0E71300ECE7002BDD
:1021E00009DA22230120059A40421360019B002B4B
:1021F0000BD107B0F0BD029A002A00D04042019AEC
:10220000002AF6D0039A002B00D06A1E019B1A60A8
:10221000EFE73024002FAAD10837A8E737B513001D
:10222000064A05001068046A002C00D1044C0A001C
:1022300000942900FFF76BFF3EBDC04688000020D8
:10224000EC000020EC300068704782B0002900D11B
:1022500001A9101E06D0002B06D013780B60107851
:10226000431E984102B0704702204042FAE7FFFF48
:10227000F0B58E6885B007000C00039201939E4272
:1022800039D890238A89DB001A4234D003250969A2
:1022900023685B1A0293636902985D43EB0F5D1933
:1022A000019B6D1001331B18AB4200D91D00530573
:1022B00032D52900380000F03DFB061E09D10C2361
:1022C0003B6040230120A28940421343A38105B013
:1022D000F0BD029A2169FFF7CDFEA389144A1A4086
:1022E00080231343A381029B2661F6182660656153
:1022F000019EED1AA560019BB34200D21E00320080
:102300000399206800F0B9FAA36800209B1BA36022
:1023100023689E192660DAE72A00380000F068FB7F
:10232000061EE0D12169380000F0BAFAC7E7C046BE
:102330007FFBFFFFF0B59FB0029005938B890F00E4
:1023400016001B0611D50B69002B0ED1402100F0A1
:10235000F1FA38603861002805D10C23029A01385F
:1023600013601FB0F0BD40237B61002306AD6B619D
:1023700020336B761033AB7634002378002B47D1B3
:10238000A31B04930DD0A31B320039000298FFF762
:102390006FFF431C00D1B5E06A69049B9446634417
:1023A0006B612378002B00D1ACE001220023524264
:1023B0006A6002A95432521801342B60EB60AB60A2
:1023C0001370AB65584E05222178300000F04AFAB0
:1023D000621C002820D12968CB0604D5532302AE05
:1023E00020309B1918700B0704D553232B2002AE05
:1023F0009B19187023782A2B16D000200A21099BDC
:102400002278303A092A55D9002815D0099313E0CB
:10241000252BB5D00134B0E70123801B8340296808
:1024200014000B432B60CDE7059B181D1B6805901E
:10243000002B39DB0993140023782E2B0BD1637802
:10244000621C2A2B3ED1059B02341A1D1B68059283
:10245000002B34DB0793354E21780322300000F047
:1024600001FA002806D04023801B83402A680134EB
:1024700013432B60217806222D48661C297600F034
:10248000F1F9002846D02B4B002B2FD12968059B52
:102490000722C90528D59B189343083305936B6918
:1024A000039A9B186B6167E75B42EB6002230B4367
:1024B0002B60C0E74B4301349B180120A0E70123A8
:1024C0005B42C7E7002314000A201A006B602178E2
:1024D0003039092903D9002BBDD00792BBE742430D
:1024E000013452180123F2E70733D5E705AB009317
:1024F0003A00114B2900029800E000BF0390039BB3
:102500000133CCD1BB890B985B0600D429E70120AD
:10251000404226E705AB00933A00074B290002989A
:1025200000F07AF8EAE7C0463E2F0000442F000092
:10253000482F00000000000071220000F7B51500D0
:1025400001938A680B6900900C00934200DA130033
:1025500022002B6043321278002A01D001332B6015
:1025600023689B0602D52B6802332B60062723685D
:102570001F4027D0230043331B785A1E9341226803
:10258000920630D42200019943320098089EB04749
:10259000431C25D0062320682A68E16803400025F3
:1025A000042B03D18D1AEB43DB171D40A36822696E
:1025B000934201DD9B1AED180027BD4220D1002077
:1025C00010E00137E3682A689B1A9F42D2DA2200A2
:1025D0000123193201990098089EB047431CF0D19D
:1025E00001204042FEBD3020E11843310870210037
:1025F0005A1C45310978A218433202331170C1E7E1
:10260000220001231A3201990098089EB047431C0A
:10261000E6D00137D1E7FFFFF0B58BB006920A0094
:1026200043320793059004920A7E0C00109B6E2A99
:1026300000D18FE017D8632A2CD008D8002A00D107
:1026400099E0582A54D026004236327029E0642A94
:1026500001D0692AF7D121681A68080623D5111D0F
:102660001960156825E0732A00D188E008D86F2A20
:1026700029D0702AE7D1202209680A43226003E0AA
:10268000752A20D0782ADED12200782145321170B7
:102690006C4A30E00E001A684236111D196013684A
:1026A0003370012379E04906D9D5111D1960002343
:1026B000D55E002D03DA2D23049A6D421370624B10
:1026C0000A2703932FE020681968050603D5081D23
:1026D00018600D6805E04006F9D50D68081D186002
:1026E000ADB2594B082703936F2A18D00A2716E07A
:1026F00045310A70544A03921A682168101D186007
:102700001568080622D5CB0702D52023194321607E
:102710001027002D03D1202322689A432260230032
:10272000002243331A706368A360002B5CDB042231
:10273000216891432160002D58D1049E002B64D064
:102740002600039B42361B7833705EE04806DAD5DC
:10275000ADB2D8E709681A68080605D5111D1960D9
:10276000136862691A6006E04906F7D5111D196001
:102770001368A28A1A800023049E236154E01A6819
:10278000111D1960166800216268300000F06AF8B7
:10279000002801D0801B6060636823610023049AD5
:1027A000137041E02369320006990598079DA847F8
:1027B000431C43D0236800259B070FD4099BE06886
:1027C00098423DDA18003BE02200012319320699B5
:1027D0000598079EB047431C30D00135E368099A3D
:1027E0009B1A9D42F0DBE9E7002DA9D0049E28004A
:1027F0003900FFF73BF8039B013E5B5C2800337018
:102800003900FEF7ADFF051EF1D1082F09D123686D
:10281000DB0706D563682269934202DC3023013E60
:102820003370049B9B1B2361079B09AA0093210023
:10283000069B0598FFF782FE431CB3D1012040425E
:102840000BB0F0BD602F00004F2F00000B1E04D016
:10285000FF2A04D98A2303608B3B180070470A7053
:102860000123FAE7C9B28218904201D100207047D3
:1028700003788B42FBD00130F6E710B5884202D9CD
:102880008B18984208D300239A4207D0CC5CC454DA
:102890000133F9E78B5C8354013AFBD210BDFFFF93
:1028A00070B50500002910D00C1F2368002B00DA3A
:1028B000E418280000F0D4F81D4A1368002B05D155
:1028C00063601460280000F0CCF870BDA34209D901
:1028D000216860188342F3D118685B684118216051
:1028E000EEE713005A68002A01D0A242F9D919680C
:1028F0005818A0420BD12068091858181960824254
:10290000E0D110685268411819605A60DAE7A042B5
:1029100002D90C232B60D5E721686018824203D1CD
:10292000106852684118216062605C60CAE7C04666
:1029300064020020032370B5CD1C9D4308350600BA
:102940000C2D1ED20C25A9421DD8300000F088F8AD
:10295000254A14682100002919D1244C2368002B32
:1029600003D1300000F06AF820602900300000F048
:1029700065F8431C2CD10C233000336000F071F853
:1029800003E0002DDFDA0C233360002070BD0B68FC
:102990005B1B1AD40B2B03D90B60CC18256003E00A
:1029A0008C420ED163681360300000F05AF82000AA
:1029B00007220B30231D9043C31AE7D05A42E2503E
:1029C000E4E74B6863600C00EEE70C004968C2E77F
:1029D0000323C41C9C43A042E0D0211A300000F025
:1029E0002DF8431CDAD1C6E76402002068020020FB
:1029F000F8B507000D001600002905D11100FFF7FA
:102A000099FF04002000F8BD002A03D1FFF748FF1A
:102A10003400F7E700F026F82C008642F2D93100A6
:102A20003800FFF787FF041EECD029003200FFF7C3
:102A300021FB29003800FFF733FFE3E7002370B5DF
:102A4000064C050008002360FEF758F9431C03D12B
:102A50002368002B00D02B6070BDC04618040020F6
:102A6000704770470B1F1B68181F002B01DA0B58AB
:102A7000C01870473C1C0000FC1A0000FC1A000043
:102A8000F81A0000141C0000141C0000061C0000B2
:102A9000F81A0000141C0000061C0000141C0000A2
:102AA000F81A00001C1C00001C1C00001C1C00006C
:102AB000201E00004B616D776F726B7320436F6453
:102AC000657377697463680A0D56657273696F6E12
:102AD0003D25642E253032640A0D000A48656C706D
:102AE0003A202A636F6465230A0D636F64653D3184
:102AF0003A20726561642069640A0D636F64653D04
:102B0000323A2072656D61696E696E672064617921
:102B1000730A0D636F64653D353A20726561642008
:102B20005254430A0D00656C736520636F64652021
:102B30006973206372656469742028313020646988
:102B400067697473290A0A0D00656570726F6D20DC
:102B5000656D7074793A2072656C6179206F666674
:102B60000A0D00656570726F6D206F6B3A2072659B
:102B700061642076616C7565730028646179733DCA
:102B800025642920287365713D2564290A0D006696
:102B9000726565206D6F64652C206E6F20616C61BD
:102BA000726D3A2072656C6179206F6E0A0D00615A
:102BB0006C726561647920657870697265642C2037
:102BC00072656C6179206F66660A0D00656E6162E0
:102BD0006C6520616C61726D2C2072656C6179206E
:102BE0006F6E0A0D00205B49523A25306C783A2509
:102BF000635D00526563656976656420636D643A60
:102C0000002A3123002A3223002A352300205B7357
:102C100065713D256420646179733D256420696494
:102C20003D256C645D005B6964206D617463685D63
:102C3000005B73657474696E6720616C61726D5DB1
:102C4000005B64697361626C6520616C61726D5DCB
:102C5000005B777269746520666C6173685D005B08
:102C6000616C726561647920757365645D005B6990
:102C700064206E6F74206D617463685D00416C61E7
:102C8000726D212052656C6179204F4646210A0DF4
:102C9000005B777269746520666C6173685D0D0A0C
:102CA000006D7969643D256C640A0D000A0D434D81
:102CB000443E20000A0D20202020202059592D4D6F
:102CC0004D2D44442068683A6D6D0A0D00207469EA
:102CD0006D653A253032642D253032642D25303231
:102CE0006420253032643A253032640A0D00616C6C
:102CF00061726D3A253032642D253032642D2530D5
:102D0000326420253032643A253032640A0D006383
:102D100072656469743D25642064617973206C6513
:102D200066740A0D00FFFFFFFFFFFFFFFFFFFFFFBD
:102D3000FFFFFFFFFFFFFFFFFFFFFFFFFFFFFFFFA3
:102D4000FFFFFFFFFFFFFFFFFFFFFFFFFFFFFFFF93
:102D5000FFFFFFFFFFFFFFFFFFFFFFFFFFFFFFFF83
:102D6000FFFFFFFFFFFFFFFFFFFFFFFFFFFFFFFF73
:102D7000FFFFFFFFFFFFFFFFFFFFFFFFFFFFFFFF63
:102D8000FFFFFFFFFFFFFFFFFFFFFFFFFFFFFFFF53
:102D9000FFFFFFFFFFFFFFFFFFFFFFFFFFFFFFFF43
:102DA000FFFFFFFFFFFFFFFFFFFFFFFFFFFFFFFF33
:102DB000FFFFFFFFFFFFFFFFFFFFFFFFFFFFFFFF23
:102DC000FFFFFFFFFFFFFFFFFFFFFFFFFFFFFFFF13
:102DD000FFFFFFFFFFFFFFFFFFFFFFFFFFFFFFFF03
:102DE000FFFFFFFFFFFFFFFFFFFFFFFFFFFFFFFFF3
:102DF000FFFFFFFFFFFFFFFFFFFFFFFFFFFFFFFFE3
:102E000000000000000000000000000000000000C2
:102E100000000000000000000000000000000000B2
:102E200000000000000000000000000000000000A2
:102E30000000000000000000000000000000000092
:102E40000000000000000000000000000000000082
:102E50000000000000000000000000000000000072
:102E60000000000000000000000000000000000062
:102E70000000000000000000000000000000000052
:102E80000000000000000000000000000000000042
:102E90000000000000000000000000000000000032
:102EA0000000000000000000000000000000000022
:102EB0000000000000000000000000000000000012
:102EC0000000000000000000000000000000000002
:102ED00000000000000000000000000000000000F2
:102EE00000000000000000000000000000000000E2
:102EF00000000000000000000000000000000000D2
:102F00000800000010000000200000004000000049
:102F1000800000000001000000020000000400002A
:102F2000000100020003000400000005000000068C
:102F3000000000074300504F534958002E00232D36
:102F4000302B2000686C4C006566674546470030B2
:102F500031323334353637383941424344454600FF
:102F600030313233343536373839616263646566FF
:102F70000000202020202020202020282828282869
:102F80002020202020202020202020202020202041
:102F90002020881010101010101010101010101099
:102FA0001010040404040404040404041010101099
:102FB0001010104141414141410101010101010154
:102FC00001010101010101010101010101101010C4
:102FD0001010104242424242420202020202020227
:102FE0000202020202020202020202020210101097
:102FF00010200000000000000000000000000000A1
:1030000000000000000000000000000000000000C0
:1030100000000000000000000000000000000000B0
:1030200000000000000000000000000000000000A0
:103030000000000000000000000000000000000090
:103040000000000000000000000000000000000080
:103050000000000000000000000000000000000070
:103060000000000000000000000000000000000060
:043070000000FFFF5E
:04307400F8B5C046A5
:04307800F8B5C046A1
:10307C001704000008000000B80100000200000066
:10308C001003000004000000BA020000040000005D
:10309C0093020000040000004B020000040000003A
:1030AC000B02000004000000EE0100000400000010
:1030BC00B8010000020000008801000001000000BF
:1030CC0010030000080000001003000008000000BE
:1030DC007003000004000000100300000400000056
:1030EC000000000004000000DC03000004000000ED
:1030FC0017040000040000008C00002000000000F9
:10310C0000000000000000000000000000000000B3
:10311C0000000000000000000000000000000000A3
:10312C000000000000000000000000000000000093
:10313C000000000000000000000000000000000083
:10314C000000000000000000000000000000000073
:10315C000000000000000000000000004300000020
:10316C000000000000000000000000000000000053
:10317C000000000000000000000000004300000000
:10318C000000000000000000000000000000000033
:10319C0000000000000000000000000043000000E0
:1031AC000000000000000000000000000000000013
:1031BC0000000000000000000000000043000000C0
:1031CC0000000000000000000000000000000000F3
:1031DC0000000000000000000000000043000000A0
:1031EC0000000000000000000000000000000000D3
:1031FC000000000000000000000000004300000080
:10320C0000000000000000000000000000000000B2
:10321C00000000000000000000000000430000005F
:10322C000000000000000000000000000000000092
:10323C000000000000000000000000004D2800000D
:10324C004B22000000000000712F00003C2F0000FA
:10325C00A02C0000A02C0000A02C0000A02C000032
:10326C00A02C0000A02C0000A02C0000A02C000022
:10327C00A02C0000FFFFFFFFFFFFFFFFFFFFFFFF82
:10328C00FFFF0000010041534349490000000000CA
:10329C000000000000000000000000000000000022
:1032AC0000000000000041534349490000000000A9
:1032BC000000000000000000000000000000000002
:0832CC000000000000000000FA
:040000030000009168
:00000001FF
